:020000040800F2
:100000003833002079020008D50B0008010A0008E7
:10001000D10B000889070008F31200080000000057
:10002000000000000000000000000000E1010008E6
:10003000A50700080000000025020008C10E000806
:10004000930200089302000893020008930200083C
:10005000930200089302000893020008930200082C
:1000600093020008A7070008B907000893020008D8
:10007000930200089302000893020008930200080C
:1000800093020008930200089302000893020008FC
:1000900093020008930200089302000893020008EC
:1000A00093020008930200089302000893020008DC
:1000B00093020008310F0008B90F000893020008EE
:1000C00093020008930200089302000893020008BC
:1000D00093020008D1100008930200089302000860
:1000E000930200089302000893020008930200089C
:1000F000930200089302000893020008930200088C
:10010000930200089302000893020008930200087B
:10011000930200089302000893020008930200086B
:10012000930200089302000893020008930200085B
:1001300000F002F800F045F80AA090E8000C8244B4
:100140008344AAF10107DA4501D100F03AF8AFF291
:10015000090EBAE80F0013F0010F18BFFB1A43F0A5
:100160000103184784360000A4360000103A24BF6B
:1001700078C878C1FAD8520724BF30C830C144BF0C
:1001800004680C607047000000230024002500264E
:10019000103A28BF78C1FBD8520728BF30C148BFEA
:1001A0000B607047642900F0BF80752900F0BC80A7
:1001B000732900F02582002070471FB51FBD10B5C0
:1001C00010BD00F0B2FA1146FFF7F7FF01F0E8F9B1
:1001D00000F0D0FA03B4FFF7F2FF03BC01F08BF894
:1001E000224B19680868B0E8F00F80F30988BFF364
:1001F0006F8F4FF0000080F311884EF00D0E7047A6
:100200000000000006480068006880F3088862B6B5
:1002100061B6BFF34F8FBFF36F8F00DF00BF00BF2A
:1002200008ED00E0EFF30980BFF36F8F0F4B1A6802
:1002300020E9F00F106008B54FF0500080F31188EE
:10024000BFF34F8FBFF36F8F02F0F2FB4FF0000050
:1002500080F31188BDE8084019680868B0E8F00F1D
:1002600080F30988BFF36F8F704700BF4400002000
:10027000EFF30580704700000948804709480047B0
:10028000FEE7FEE7FEE7FEE7FEE7FEE7FEE7FEE746
:10029000FEE7FEE704480549054A064B70470000A3
:1002A000D10E000831010008382D0020383300201D
:1002B000382F0020382F0020704700000FB4044969
:1002C00010B503AA029800F09FF910BC5DF814FB6A
:1002D0002000002070B50C460546012A05D028787C
:1002E000800600D5EA69002302E0012305E05B1CDB
:1002F000934202D2E05C0028F9D1A869E618C01A3E
:10030000A861286A184428622846AFF3008004E0F8
:10031000D5E9012114F8010B9047B442F8D32846DF
:10032000AFF3008070BD00002DE9F04106460024C7
:1003300010687529314616A510D0AFF3008000284B
:1003400002DA404213A507E031688A0701D512A5F9
:1003500002E0490704D511A5012401E0AFF30080B4
:1003600000210A2206F1240709E0B0FBF2FCB0FBF1
:10037000F2F302FB1C00303078541846491C002868
:10038000F3D123462A463046BDE8F04100F0B5B827
:10039000000000002D0000002B00000020000000E5
:1003A0002DE9F0410F460546002028622846E968FD
:1003B000884770B3252805D0D5E901219047286AE0
:1003C000401CF2E7E9682846002688476C28044666
:1003D0000AD0682C08D04C2C35D06A2C31D0742C23
:1003E00031D07A2C2FD016E0E96806462846884797
:1003F000B042044608D16C2E23D04FF480662846C4
:10040000E9688847044606E06C2E03D04FF48076F6
:1004100001E01EE04026E4B1A4F14100192802D811
:10042000203446F400663A46214628462E60FFF7FF
:10043000B9FE60B1012808D0FF1D27F00707083773
:10044000B4E78026DBE70026D9E73F1DAEE720466C
:10045000B2E7286ABDE8F081032A40F2308010F04C
:10046000030C00F0158011F8013BBCF1020F62444F
:1004700098BF11F801CB00F8013B38BF11F8013BE0
:10048000A2F1040298BF00F801CB38BF00F8013B8D
:1004900011F0030300F0CA80083AC0F0088051F858
:1004A000043B083A51F804CBA0E80810F5E7121D08
:1004B0005CBF51F8043B40F8043BAFF30080D20727
:1004C00024BF11F8013B11F801CB48BF11F8012BF3
:1004D00024BF00F8013B00F801CB48BF00F8012B16
:1004E000704702F0FF0343EA032242EA024200F0AF
:1004F000D1B870477047704770472DE9F0470D46F7
:1005000099469246044600F124080168880604D5FD
:10051000E06921F01001216000E00120A84201DD26
:10052000471B00E00027A1697A1902EB0900081AAD
:10053000A0612078C00602D42046AFF300800026D8
:1005400008E0D4E901211AF806009047206A401C0F
:10055000761C20624E45F4DB2078C0060AD5204682
:10056000AFF3008006E0D4E9012130209047206AF3
:10057000401C2062381EA7F10107F4DC07E0D4E933
:10058000012118F805009047206A401C2062281EAF
:10059000A5F10105F3DC2046AFF3008020780006CA
:1005A00002D50220BDE8F0870120FBE701694A1C63
:1005B00002610878704700B58FB0CDE901310021A4
:1005C000059105497944CDE9031011466846FFF7C6
:1005D000E7FE0FB000BD0000E5FFFFFF10B5436967
:1005E00013B1AFF3008001E0FFF774FE012010BDEE
:1005F000127800F124010A7000224A700122EDE70E
:1006000011684FF0FF32E9E7074B70B50D467B44A8
:10061000FFF7D1FF0446284600F05CF810B14FF018
:10062000FF3070BD204670BD2F0E000010B5203A7F
:10063000C0F00B80B1E81850203AA0E81850B1E89B
:100640001850A0E81850BFF4F5AF5FEA027C24BF51
:10065000B1E81850A0E8185044BF18C918C0BDE848
:1006600010405FEA827C24BF51F8043B40F8043B11
:1006700008BF7047D20728BF31F8023B48BF11F8C6
:10068000012B28BF20F8023B48BF00F8012B704720
:100690004FF000020429C0F0128010F0030C00F0AB
:1006A0001F80CCF1040CBCF1020F18BF00F8012B25
:1006B000A8BF20F8022BA1EB0C0100F011B85FEAF3
:1006C000C17C24BF00F8012B00F8012B48BF00F8C3
:1006D000012B7047007B00F0800070474FF0000254
:1006E00000B5134694469646203922BFA0E80C5028
:1006F000A0E80C50B1F12001BFF4F7AF090728BF03
:10070000A0E80C5048BF0CC05DF804EB890028BF7E
:1007100040F8042B08BF704748BF20F8022B11F0A7
:10072000804F18BF00F8012B7047754600F028F87D
:10073000AE4605006946534620F00700854618B0CE
:1007400020B5FFF7A7FDBDE820404FF000064FF0B1
:1007500000074FF000084FF0000B21F00701AC46F6
:10076000ACE8C009ACE8C009ACE8C009ACE8C00915
:100770008D4670470446AFF300802046FFF72AFD00
:1007800000487047D42C002000BFFEE710B50020C1
:100790000349086040F2CF21092000F0DDFB10BDC5
:1007A00028000020704710B5082000F015F810B19F
:1007B000082000F00BF810BD10B5102000F00CF868
:1007C00010B1102000F002F810BD000001490860CF
:1007D0007047000014040140014600200022074B2E
:1007E0001B6803EA0102054B14331B680B4013B16D
:1007F0000AB1012000E00020704700000004014021
:10080000002123498279002A3AD00A4612680368F7
:100810009A430B461A600A1D126803689A430B1D1F
:100820001A60027911440A6803681A430A60184A78
:100830000832126803689A43154B08331A601A1D70
:10084000126803689A43124B0C331A604279102ADB
:100850000ED11A1F126803681A430D4B08331A6031
:100860001A1D126803681A43094B0C331A600DE015
:100870000749427911440A6803681A430A6005E08F
:10088000027911440A6803689A430A6070470000BD
:100890000004014030B500228B071C0F0F2303FA20
:1008A00004F20B4B8C1053F824309343084C8D10FA
:1008B00044F8253023468C1053F824308C07240F3D
:1008C00000FA04F42343024C8D1044F8253030BD67
:1008D000080001402DE9F0410246002500260020D5
:1008E00000230024002791F803C00CF00F0591F8B5
:1008F00003C00CF0100CBCF1000F03D091F802C043
:100900004CEA050591F800C0BCF1000F31D0146825
:1009100000202BE04FF0010C0CFA00F3B1F800C0FE
:100920000CEA03069E4220D183004FF00F0C0CFA14
:1009300003F7BC4305FA03FC4CEA040491F803C036
:10094000BCF1280F06D14FF0010C0CFA00FCC2F8E4
:1009500014C00AE091F803C0BCF1480F05D14FF074
:10096000010C0CFA00FCC2F810C0401C0828D1D3BE
:100970001460B1F800C0BCF1FF0F34DD54680020F2
:100980002EE000F1080C4FF0010808FA0CF3B1F862
:1009900000C00CEA03069E4221D183004FF00F0CE9
:1009A0000CFA03F7BC4305FA03FC4CEA040491F883
:1009B00003C0BCF1280F05D100F1080C08FA0CF8AF
:1009C000C2F8148091F803C0BCF1480F07D100F1C0
:1009D000080C4FF0010808FA0CF8C2F81080401C0F
:1009E0000828CED35460BDE8F08102460020936809
:1009F0000B400BB1012000E00020704701617047FF
:100A000000BFFEE70EB500F04DF80121084600F0EA
:100A100055F903210420FFF73DFF08200190002035
:100A20008DF808000C208DF8090001208DF80A00CF
:100A300001A8FFF7E5FE09208DF8000002208DF8DF
:100A400001008DF8020001208DF80300684600F0D7
:100A5000C3F80EBD0EB500F025F80121084600F0E0
:100A60002DF904210846FFF715FF10200190002002
:100A70008DF808000C208DF8090001208DF80A007F
:100A800001A8FFF7BDFE0A208DF8000002208DF8B6
:100A900001008DF8020001208DF80300684600F087
:100AA0009BF80EBD08B50121442000F007F918207D
:100AB000ADF8000048208DF8030069460648FFF7AE
:100AC00009FF0120ADF8000028208DF803006946D9
:100AD0000248FFF7FFFE08BD001801400008014072
:100AE00010B5044614B1012023490870224800784B
:100AF00058B310212148FFF778FF50B108211F4853
:100B0000FFF773FF28B101211D48FFF76EFF012891
:100B10001BD10A2000F020FC00201749087010218A
:100B20001648FFF762FF08B9012010BD08211348DD
:100B3000FFF75BFF08B90220F7E701211048FFF734
:100B400054FF012815D10320EFE710210B48FFF7D0
:100B50004CFF01280DD108210848FFF746FF012866
:100B600007D101210648FFF740FF10B901200249D3
:100B700008700020D9E700002C0000200018014078
:100B80000008014008B50121482000F097F8202016
:100B9000ADF8000010208DF8030003208DF802004E
:100BA00069460948FFF796FE20210748FFF726FF10
:100BB0002020ADF8000069460448FFF78BFE202195
:100BC0000248FFF71BFF08BD000C01400018014060
:100BD00000BFFEE77047000070B5002100230F2220
:100BE000C47804B3154C246804F4E064C4F5E064EC
:100BF000210AC1F10403CA40447804FA03F184785D
:100C00001440214309010E4C0678A155047804F0E4
:100C10001F050124AC4005786D11AD0005F1E025FC
:100C2000C5F8004109E0047804F01F050124AC4038
:100C3000044D0678761145F8264070BD0CED00E0B5
:100C400000E400E080E100E002490143024A116053
:100C5000704700000000FA050CED00E010B50246F8
:100C600000200C4B186820F00300104318600A4B5A
:100C70001B6843F00403084C2360012901D130BFF5
:100C800000E020BF044B1B6823F00403024C2360E8
:100C900010BD00000070004010ED00E029B1064AD0
:100CA000D2690243044BDA6104E0034AD269824309
:100CB000014BDA61704700000010024029B1064A7A
:100CC00092690243044B9A6104E0034A92698243A9
:100CD000014B9A61704700000010024030B50021BE
:100CE0000022002400232D4D6D6805F00C0121B178
:100CF000042905D0082923D105E0294D056022E00B
:100D0000274D05601FE0254D6D6805F47012234DD9
:100D10006D6805F48034022505EB92421CB9214D23
:100D2000554305600BE01D4D6D6805F400351DB1A0
:100D30001C4D5543056002E0194D5543056002E026
:100D4000174D056000BF00BF144D6D6805F0F00140
:100D50000909154D6B5C0568DD4045600F4D6D68F8
:100D600005F4E061090A104D6B5C4568DD40856063
:100D70000A4D6D6805F46051C90A0B4D6B5C4568FE
:100D8000DD40C560054D6D6805F44041890B074D98
:100D90006B5CC568B5FBF3F5056130BD0010024022
:100DA00000127A0000093D002D0000203D000020C7
:100DB00010B500F001F810BD0CB5002001900090B6
:100DC0003348006840F480303149086000BF304843
:100DD000006800F4003000900198401C01900098D9
:100DE00018B90198B0F5A06FF1D12948006800F456
:100DF000003010B10120009001E000200090009828
:100E0000012843D12348006840F0100021490860C0
:100E10000846006820F0030008600846006840F0BB
:100E2000020008601A48406819494860084640684E
:100E300048600846406840F4806048600846406862
:100E400020F47C1048600846406840F4E810486090
:100E50000846006840F08070086000BF0C480068D9
:100E600000F000700028F9D00948406820F0030025
:100E7000074948600846406840F00200486000BFEB
:100E80000348406800F00C000828F9D10CBD0000B0
:100E90000010024000200240042808D14FF0E02159
:100EA000096941F004014FF0E022116107E04FF0C1
:100EB000E021096921F004014FF0E022116170473F
:100EC00010B502F0E9F9012801D001F075FE10BD5E
:100ED00010B51348006840F0010011490860084649
:100EE0004068104908400E494860084600680E49AD
:100EF00008400B4908600846006820F4802008601C
:100F00000846406820F4FE0048604FF41F008860E7
:100F1000FFF74EFF4FF000600449086010BD00006D
:100F2000001002400000FFF8FFFFF6FE08ED00E0B1
:100F300010B50121064800F05EF820B105480068B0
:100F4000401C044908600121014800F045F810BD2B
:100F500000040040280000207FB505460C46012112
:100F60000220FFF79BFEADF80850ADF804400020CA
:100F7000ADF80A00ADF8060001A90E4800F056F8D9
:100F8000012211460B4800F047F81D208DF80000A3
:100F900004208DF8010000208DF8020001208DF85A
:100FA00003006846FFF718FE0121024800F017F819
:100FB0007FBD00000004004010B50121044800F08E
:100FC0001AF818B10121034800F006F810BD00001E
:100FD0000008004000040040CA430282704721B16B
:100FE000028842F00102028004E002884FF6FE739C
:100FF0001A400280704730B50246002000230024CA
:10100000158A05EA0103958905EA010413B10CB1BB
:10101000012000E0002030BD1AB183890B43838199
:1010200002E083898B43838170470000002202889D
:101030001D4B98420ED01D4B98420BD0B0F1804F03
:1010400008D01B4B984205D01A4B984202D01A4B3D
:10105000984204D14FF68F731A404B881A43174BAE
:10106000984207D0164B984204D04FF6FF431A40DF
:10107000CB881A4302808B8883850B8803850A4BB3
:1010800098420BD0094B984208D00E4B984205D09D
:101090000D4B984202D00D4B984201D10B7A03863A
:1010A0000123838270470000002C0140003401407E
:1010B0000004004000080040000C00400010004008
:1010C000001400400040014000440140004801403D
:1010D00010B540F225511D4800F04AF810B31B48E6
:1010E00000F002F9C4B21A48008800F40040C8B900
:1010F0001748008800F4804060B10A2C03D000201B
:101100001349088020E01248008840F4004010494C
:10111000088019E00D2C06D10D48008840F480406D
:101120000B49088010E00A480088C0F30D00094907
:101130000C5407480088401C054908800846008870
:10114000C72801DD0020088010BD000000380140E4
:1011500024000020C000002021B1828942F4005206
:10116000828104E082894DF6FF731A4082817047C4
:1011700070B50246002400230025002040F66A16C0
:10118000B14200D100BFC1F3421501F01F03012697
:1011900006FA03F3012D02D19689334006E0022DB1
:1011A00002D1168A334001E0968A33400C120126A0
:1011B00006FA04F41688344013B10CB1012000E0A3
:1011C000002070BDF0B50346002400260025002055
:1011D00040F66A17B94200D100BF1846C1F3421465
:1011E00001F01F06012707FA06F5012C01D10C308A
:1011F00004E0022C01D1103000E014301AB107686D
:101200002F43076002E00768AF430760F0BD0000AE
:101210002DE9F04786B005460E460024A24600BFE1
:10122000A1460027B08900B100BF2F462C8A4CF69A
:10123000FF700440F08804432C82AC894EF6F31012
:101240000440B08831890843718908430443AC8164
:10125000AC8A4FF6FF400440B0890443AC8201A839
:10126000FFF73CFD1F48874202D1DDF810A001E0E6
:10127000DDF80CA0A88900F4004040B10AEBCA00D8
:1012800000EB0A1031684900B0FBF1F807E00AEB07
:10129000CA0000EB0A1031688900B0FBF1F8642045
:1012A000B8FBF0F004012009642101FB1089A88932
:1012B00000F4004040B1322000EBC900B0FBF1F077
:1012C00000F00700044308E0322000EB091064211D
:1012D000B0FBF1F000F00F0004432C8106B0BDE834
:1012E000F08700000038014001468888C0F30800FC
:1012F000704700BFFEE700BF7047000010B5042034
:10130000FFF7CAFD104800681049B0FBF1F0104922
:1013100008700D4800680D49B0FBF1F44FF47A7085
:10132000444301200B4908804FF0E020006940F061
:1013300002004FF0E021086108464461006940F076
:101340000100086110BD00000000002040420F00B5
:101350001C0000201E00002070B5044601F09CFF18
:10136000012811D00C480088844206DB0A48008816
:1013700094FBF0F5284601F05FF90748008894FBDC
:10138000F0F100FB114084B24FF47A7104FB01F0DC
:1013900000F004F870BD00001E00002070B5034688
:1013A00000224FF0E02675690D4E367803FB06F4F7
:1013B0004FF0E026B16910E04FF0E026B0698842B6
:1013C0000BD0884202D20E1A324402E02E1A0E448A
:1013D00032440146A24200D300E0EDE700BF70BDF9
:1013E0001C00002010B501210807FFF757FC002062
:1013F000104908601049C1F8940100210F48FFF717
:10140000ABFE00214FF48040FFF758FC0121084655
:10141000FFF724FCFFF75CFD4FF4E13000F0FEFE27
:10142000FFF7B0FBFFF73EFBFFF7ECFAFFF712FB0D
:1014300010BD000094012342008021420038014089
:1014400000BF054A128802F04002002AF9D0C2B259
:10145000014B1B1D1A807047003801401CB5012448
:101460000B48012100238022CDE9001009A10C487E
:1014700001F0E2FE0446012C05D10AA0FEF71EFF92
:1014800001F076FA02E00DA0FEF718FF1CBD000087
:101490001400002073746172745F7461736B0000D8
:1014A000DD21000873746172745F7461736B206373
:1014B0007265617465640D0A0000000073746172E6
:1014C000745F7461736B206372656174652066611B
:1014D000696C65640D0A0000002500242EE00020E0
:1014E000FFF7FEFA0546012D07D1002414A0FEF7F0
:1014F000E5FE142001F0A0F812E0022D07D100242F
:1015000011A0FEF7DBFE142001F096F808E04FF47E
:101510007A7001F091F8641C21460DA0FEF7CEFE12
:10152000052C0BD30FA0FEF7C9FE0A2001F084F8AA
:10153000FFF758FF002413A0FEF7C0FECFE700001E
:101540004B4559300D0A00004B4559310D0A00003A
:1015500049646C652054696D653A20256C7520736B
:101560000D0A0000456E746572696E67204C6F77D6
:1015700020506F776572204D6F64652E2E2E0D0AF8
:1015800000000000576F6B652075702066726F6DEC
:10159000204C6F7720506F776572210D0A00000094
:1015A0004FF44070FFF750FBFFF7A8FE4FF4E13017
:1015B00000F034FEFFF7E6FAFFF774FAFFF74AFA95
:1015C00003A0FEF77BFEFFF749FF00BFFEE7000028
:1015D00053797374656D20496E697469616C697AB9
:1015E00065642E205374617274696E672052544F83
:1015F000532E2E2E0D0A00002DE9F04105460E4611
:101600001F48076800201F49096881F85D001D48D0
:101610000068001D00F052FE50B91A48006890F8AA
:101620002C10012088401849096881431648016040
:10163000681C38B936B113480168091D134800F019
:101640007BFE1AE07C190F4800684460BC4207D258
:101650000C480168091D0E48006800F053FE0CE0BC
:1016600008480168091D0B48006800F04BFE0A4855
:101670000068844201D208480460BDE8F08100009F
:1016800058000020440000205C0000209804002046
:101690004C000020480000207400002010B50446D3
:1016A00000F056FE24480068401C23490860234887
:1016B000006840B9214804600846006801280DD13F
:1016C00000F0EEF90AE01E48006838B91B480068CF
:1016D000C06AE16A884201D8184804601948006865
:1016E000401C1849086008460068606494F82C1093
:1016F0000120884014490968084313490860E16AD9
:1017000001EB8101114A02EB8100211D00F014FE62
:1017100000F062FE0A48006868B108480068C06AC4
:10172000E16A884207D24FF0805009490860BFF350
:101730004F8FBFF36F8F10BD540000204400002076
:1017400060000020700000205C000020C801002024
:1017500004ED00E010B500F0FBFD10480068D0B9C2
:101760000F4800F0BFFD0F4800F0BCFD0C480E49CB
:1017700008600C480D49086000221021052001F086
:1017800035FA064908600846006820B108A10348F8
:10179000006800F015FF00F01FFE10BD9000002053
:1017A000AC040020C0040020880000208C00002031
:1017B000546D72510000000070B523E001F030F963
:1017C0001348006808B9012000E00020054601F038
:1017D000EFFEBDB900F0BCFD0D48C068C468201D17
:1017E00000F06CFD0B480068401E0A4908600A487A
:1017F0000068401E0849086000F0EEFD204600F039
:1018000060F800BF044800680028D7D170BD000010
:1018100084040020540000205000002070B50446CD
:101820000D46206C70B1216CE0680844E06061688E
:10183000E068884201D32068E0602846226CE168B5
:10184000FEF70AFE70BD2DE9F04104460F4615462D
:101850004FF00008A66B206C40B9206860BB606840
:1018600001F0E0FD80460020606025E07DB939464A
:10187000226CA068FEF7F0FD216CA0680844A0600F
:10188000D4E90110884217D32068A06014E03946DB
:10189000226CE068FEF7E0FD216CE068401AE06031
:1018A0002168E068884203D2216C6068401AE060D9
:1018B000022D01D106B1761E701CA0634046BDE822
:1018C000F08110B50446206B00F0BEFD204600F00C
:1018D000BBFD10BD0146084A126812680AB9012210
:1018E00000E000220A600A6822B9034A1268D2683E
:1018F000106800E0002070478800002030B54FF4E9
:101900002053174800F007042CB1C01D20F0070039
:10191000134C041B1B1B0246124C22600024114D69
:101920006C60D018083820F007000F4C20600024AD
:101930000D4D2D686C600C4D2D682C601146441ABD
:101940004C60094C24680C60084D4C682C60084DB4
:101950004C682C604FF00044064D2C6030BD0000F8
:10196000D40400209C000020A4000020AC00002033
:10197000A8000020B000002000BFFFF71DFF0648B0
:1019800000680128F9D94FF0805004490860BFF37E
:101990004F8FBFF36F8FF0E7C801002004ED00E028
:1019A0002DE9F04106460D4617469846069C0DB9AE
:1019B000246000E02760E66325640121204601F0F1
:1019C00033FA84F84C80BDE8F08100002DE9F05F27
:1019D00082460F4690469B460A9E0C9C4FEA880121
:1019E000A522206BFEF77DFDA8F10100216B01EB24
:1019F000800929F0070909F0070008B9012000E073
:101A0000002028B940F22B321CA121A0FEF756FC81
:101A1000002507E0795D04F134004155785D00B997
:101A200002E06D1C102DF5D300BF002143200155AD
:101A3000202E00D31F26E662E66400202065201DCC
:101A400000F05DFC04F1180000F059FC2461C6F1BF
:101A50002000A061646200206065A06584F85C00DD
:101A600084F85D005A465146484600F0A5FB2060C8
:101A70000B9808B10B980460BDE8F09F2E2E5C46D1
:101A800072656552544F535C7461736B732E6300BF
:101A90004572726F723A2025732C2025640D0A005E
:101AA00010B5002407E004EB84010F4A02EB81002B
:101AB00000F018FC641C202CF5D30C4800F012FC3C
:101AC0000B4800F00FFC0B4800F00CFC0A4800F03B
:101AD00009FC0A4800F006FC04480949086004486B
:101AE0000849086010BD0000C8010020480400201B
:101AF0005C0400207004002084040020980400206E
:101B0000480000204C00002010B50146164800E0B7
:101B1000006803688B42FBD30246436813448B4240
:101B200004D143684C682344436001460A464B682D
:101B300013440468A34211D10C4C03682468A342E7
:101B400008D04B680468646823444B6003681B68D2
:101B50000B6005E0054B1B680B6001E003680B6040
:101B6000884200D0016010BD9C000020A40000202D
:101B70002DE9F04104460D4616461F464FF0000879
:101B800065602461B5420CD8F01BA169884202D37C
:101B90004FF0010811E0211D0948006800F0B2FB78
:101BA0000BE0BE4204D2BD4202D34FF0010804E074
:101BB000211D0448006800F0A5FB4046BDE8F08107
:101BC0008C0000208800002070B5054600F0C0FBA6
:101BD000A86B08B9012400E0002400F0FDFB2046BA
:101BE00070BD70B5054600F0B3FBA86BE96B884289
:101BF00001D1012400E0002400F0EEFB204670BD7E
:101C0000F8B505460F4613480068C068C468201D33
:101C100000F054FBE069012818D1A06941192B4656
:101C20003A462046FFF7A4FF80B1002003462A462B
:101C300001460090204601F085FD06462EB94FF47E
:101C4000027205A10AA0FEF739FB00BF2046616AB7
:101C50008847F8BD880000202E2E5C4672656552CC
:101C6000544F535C74696D6572732E6300000000FD
:101C70004572726F723A2025732C2025640D0A007C
:101C8000F0B587B070E0039800280CDA04AE2EB9E6
:101C900040F2E7223AA140A0FEF710FBD6E900206F
:101CA000B168904700BF039800285DDB059C606920
:101CB00008B9012000E0002010B9201D00F0FEFA54
:101CC00002A800F0C7F8054603980A284AD2DFE8C0
:101CD00000F00905072C2E4506082D2F00BF00BF78
:101CE00000BF00BF0498A269811803462A46204617
:101CF000FFF73EFFC0B12046616A8847E0690128CE
:101D000012D1002000900498A169421800231946BE
:101D1000204601F017FD07462FB940F2213218A1E5
:101D20001DA0FEF7CBFA00BF1DE000BF1BE000BF07
:101D30000498A061A06908B1012000E0002028B942
:101D40004FF44E720EA114A0FEF7B8FAA069411923
:101D50002B462A462046FFF70BFF04E0204600F002
:101D600073FB00E000BF00BF00231A4603A90E4822
:101D7000006800F075FF002885D107B0F0BD0000B5
:101D80002E2E5C4672656552544F535C74696D65C6
:101D900072732E63000000004572726F723A202544
:101DA000732C2025640D0A0090000020F8B505462C
:101DB0000C4600F035FE684600F04CF806460098E8
:101DC00020BB44B9B54206D801F0F2FB31462846A3
:101DD000FFF716FF1CE03CB10E480068006808B928
:101DE000012000E000200446A91B22460A480068A2
:101DF00000F0FCFB01F0DCFB50B94FF080500749CC
:101E00000860BFF34F8FBFF36F8F01E001F0D0FB8D
:101E1000F8BD00008C0000209000002004ED00E0E0
:101E20000A490968096809B9012100E0002121B1C6
:101E30004FF0FF31064A116006E004490968C9689D
:101E4000C868034A416811607047000048000020DC
:101E50007400002070B5044601F02EFA05460748CC
:101E60000068854204D200F00BF80120206001E0F8
:101E70000020206001480560284670BD98000020C1
:101E80002DE9F8432DE021480068C06805681F4827
:101E90000068C068C468201D00F010FA2046616A1E
:101EA0008847E06901281CD1A0694619AE4207D9CC
:101EB00066602461211D1548006800F023FA10E0D7
:101EC000002003462A4601460090204601F03AFCD5
:101ED00007462FB940F292320DA113A0FEF7EEF99A
:101EE00000BF0A480068006808B9012000E000202F
:101EF0000028C8D00548D0F800800F480068034982
:101F000008600D48C0F80080BDE8F8838800002014
:101F10002E2E5C4672656552544F535C74696D6534
:101F200072732E63000000004572726F723A2025B2
:101F3000732C2025640D0A008C0000200B480068DB
:101F4000401C08B9012000E0002020B9F42208A1BB
:101F500012A0FEF7B3F900BF502080F31188BFF341
:101F60004F8FBFF36F8F00BF00BFFEE7B4000020AC
:101F70002E2E5C4672656552544F535C706F7274BE
:101F800061626C655C525644535C41524D5F434DF7
:101F9000335C706F72742E63000000004572726FC4
:101FA000723A2025732C2025640D0A0008B500BF65
:101FB0006846FFF78FFC044620460099FFF7F6FEBF
:101FC000FFF75EFEF4E770B5044600F0C1F994F93E
:101FD000455010E0606A08B9012000E0002038B9DF
:101FE00004F1240001F08AFA18B100F0E5FB00E0EA
:101FF00003E0681E45B2002DECDC00BFFF2084F832
:10200000450000F0E9F900F0A3F994F9445010E01C
:10201000206908B9012000E0002048B904F110004F
:1020200001F06CFA08B100F0C7FB681E45B200E091
:1020300001E0002DECDC00BFFF2084F8440000F03C
:10204000CBF970BD2DE9F04104464FF0000800F0D7
:10205000E7FC3E48006808B9FFF750FC3C480068C0
:10206000204000285FD1A4B1083404F0070080B1FB
:1020700004F00700C0F10800044404F0070008B9A8
:10208000012000E0002020B9BF2232A13BA0FEF7D2
:1020900015F9002C47D03D480068844243D83C4E97
:1020A0003046056801E02E462D686868A04202D2DD
:1020B00028680028F7D125480068854233D0306869
:1020C00000F10808286830606868001B102813D9E0
:1020D0002F1907F0070008B9012000E0002020B9FF
:1020E000EC221CA125A0FEF7E9F86868001B7860C7
:1020F0006C603846FFF708FD244968680968081ACB
:10210000224908600846006822490968884203D2CB
:102110001E4800681F4908600D496868096808433F
:1021200068600020286001F043FA08F0070008B951
:10213000012000E0002028B94FF4967205A10FA0FD
:10214000FEF7BCF84046BDE8F0810000A400002086
:10215000B00000202E2E5C4672656552544F535CD1
:10216000706F727461626C655C4D656D4D616E6718
:102170005C686561705F342E630000004572726FA9
:10218000723A2025732C2025640D0A00A800002037
:102190009C000020AC0000200648006830B10549D2
:1021A000096801F15000096D491C0160014800688F
:1021B0007047000044000020001F4FF08073036050
:1021C000001F21F001030360001F034B036014385C
:1021D00002602038704700003D1F00081CB504460F
:1021E00000F0B6F80748022100238022CDE9001054
:1021F00005A1094801F020F8002000F057FA00F08E
:10220000EBF81CBD180000206C6F77706F7765725B
:102210005F7461736B000000D914000810B586B0BC
:102220000446012144F20400FEF748FD4FF400701B
:10223000ADF8140003208DF8160018208DF8170053
:1022400005A91C48FEF746FB4FF48060ADF814006A
:1022500004208DF8170005A91648FEF73BFB252042
:102260008DF8000003208DF801008DF80200012098
:102270008DF803006846FEF7AFFC01940020ADF82E
:102280000800ADF80A00ADF80C00ADF810000C2005
:10229000ADF80E0001A90848FEF7BAFF012240F28E
:1022A00025510548FEF78EFF01210348FEF754FF34
:1022B00006B010BD000801400038014001460A691F
:1022C000D1E901309860D1E9010358605068884233
:1022D00001D188685060002008611068401E1060BD
:1022E0001068704700F1080141604FF0FF318160D4
:1022F00000F10801C1600161002101607047002107
:102300000161704710B502460B685C1C0CB910697E
:1023100007E002F1080000E04068446824689C423D
:10232000FAD944684C604C68A160886041600A61D9
:102330001468641C146010BD42684A6093688B6026
:10234000936859609160086103685B1C0360704783
:1023500010B500BF502080F31188BFF34F8FBFF33B
:102360006F8F00BF0B480068401C0A490860084690
:10237000006801280DD108480068C0B208B90120E2
:1023800000E0002028B94FF4BD7204A10EA0FDF7B3
:1023900095FF10BDB400002004ED00E02E2E5C4639
:1023A00072656552544F535C706F727461626C65F4
:1023B0005C525644535C41524D5F434D335C706FE9
:1023C00072742E63000000004572726F723A20250D
:1023D000732C2025640D0A0010B50B48006828B93D
:1023E00040F2811209A114A0FDF768FF06480068B9
:1023F000401E054908600846006820B9002080F3A7
:10240000118800BF00BF10BDB40000202E2E5C4616
:1024100072656552544F535C706F727461626C6583
:102420005C525644535C41524D5F434D335C706F78
:1024300072742E63000000004572726F723A20259C
:10244000732C2025640D0A0070B506463546002E13
:1024500035D0083D2C461A4960680968084008B123
:10246000012000E0002028B94FF4A07215A11FA0A0
:10247000FDF724FF206808B9012000E0002028B9FA
:1024800040F241120FA119A0FDF718FF0C49606836
:102490000968084098B1206888B9094960680968E6
:1024A0008843606000F0BCFA144960680968084419
:1024B000124908602046FFF727FB01F079F870BD4C
:1024C000B00000202E2E5C4672656552544F535C5E
:1024D000706F727461626C655C4D656D4D616E67A5
:1024E0005C686561705F342E630000004572726F36
:1024F000723A2025732C2025640D0A00A8000020C4
:10250000064800684FF47A71B0FBF1F0401E4FF0BE
:10251000E0214861072008617047000000000020AA
:1025200070B5FDF7A5FE0546102D11D305F1E0208D
:1025300090F8F04310480078844201DB012000E06D
:10254000002028B94FF42A720CA117A0FDF7B6FE9F
:102550001948006800F4E06018490968884201D809
:10256000012000E0002028B94FF42E7203A10EA034
:10257000FDF7A4FE70BD0000B80000202E2E5C46C2
:1025800072656552544F535C706F727461626C6512
:102590005C525644535C41524D5F434D335C706F07
:1025A00072742E63000000004572726F723A20252B
:1025B000732C2025640D0A000CED00E0BC00002007
:1025C000024600200BE0084B53F8303033B9064B7D
:1025D00043F8301003EBC0035A6002E0401C0828A7
:1025E000F1D300BF70470000880100202DE9F041C1
:1025F00005460E4617462C46FFF7AAFE94F94400FE
:10260000401C10B9002084F8440094F94500401C97
:1026100010B9002084F84500FFF7DEFEA06B28B952
:102620003A46314604F1240000F0F6F82046FFF760
:10263000CAFCBDE8F081000070B504460025ACB1CD
:102640000F48006808B9012000E0002028B940F2D6
:10265000CF420CA110A0FDF731FE00F0E1F90021FE
:102660002046FEF7C9FF00F0A3FF05463DB94FF035
:1026700080500D490860BFF34F8FBFF36F8F70BD5F
:102680007C0000202E2E5C4672656552544F535CD0
:102690007461736B732E63004572726F723A2025FA
:1026A000732C2025640D0A0004ED00E070B505468A
:1026B000FFF74EFE15B92D48006800E02846044695
:1026C000201DFFF7FBFD78B9E06A00EB8000284988
:1026D00051F8200040B994F82C1001208840254979
:1026E0000968814323480160A06A18B104F1180009
:1026F000FFF7E4FD20480068401C1F4908601B48A4
:102700000068844209D1211D1C48FFF715FE1C48B2
:102710000068401C1A49086009E01A480068401E19
:10272000184908602046FFF7CCF8FFF779FBFFF760
:1027300053FE15480068C0B10C480068844214D1AB
:102740001248006808B9012000E0002028B940F2D2
:1027500065420FA113A0FDF7B1FD4FF08050154960
:102760000860BFF34F8FBFF36F8F70BD4400002030
:10277000C80100205C0000207000002084040020BC
:102780005000002054000020600000207C00002049
:102790002E2E5C4672656552544F535C7461736BA8
:1027A000732E63004572726F723A2025732C2025B8
:1027B000640D0A0004ED00E0012001490860704743
:1027C0006800002070B504460D462CB940F606326C
:1027D00007A10CA0FDF772FD0E48016818312046D4
:1027E000FFF790FD01212846FEF706FF70BD0000AF
:1027F0002E2E5C4672656552544F535C7461736B48
:10280000732E63004572726F723A2025732C202557
:10281000640D0A004400002070B505460E461446BB
:102820002DB940F6313209A10DA0FDF747FD104842
:10283000016818312846FFF77FFD0CB14FF0FF36D5
:1028400021463046FEF7D8FE70BD00002E2E5C46B5
:1028500072656552544F535C7461736B732E6300E1
:102860004572726F723A2025732C2025640D0A0080
:102870004400002070B505462C46002D4BD026495B
:10288000E06A0968C96A884245D2A06900F0004040
:1028900028B921480068C06AC0F12000A061E16A3F
:1028A00001EB81011D4A02EB81016069884201D17F
:1028B000012000E0002050B3201DFFF7FFFC78B995
:1028C000E06A00EB8000154951F8200040B994F807
:1028D0002C1001208840124909688143104801608A
:1028E0000D480068C06AE06294F82C10012088400E
:1028F0000B49096808430A490860E16A01EB810154
:10290000064A02EB8100211DFFF716FD03E0024895
:102910000068C06AE06270BD44000020C801002069
:102920005C00002010B504462CB940F6C13205A168
:1029300009A0FDF7C3FC0C48006820600B48006844
:10294000606010BD2E2E5C4672656552544F535C1C
:102950007461736B732E63004572726F723A202537
:10296000732C2025640D0A006C0000205800002004
:102970001CB51B4800210B468022CDE9001019A18F
:102980001A4800F059FC0446012C02D100F0A0FEC8
:102990000446012C17D100BF502080F31188BFF3EB
:1029A0004F8FBFF36F8F00BF4FF0FF3010490860AB
:1029B00001201049086000200F490860FDF7E6FE7D
:1029C00000F0AAF80BE0601C08B1012000E0002034
:1029D00028B940F2847209A10DA0FDF76FFC1CBD5F
:1029E0007800002049444C45000000007919000897
:1029F0007400002060000020580000202E2E5C464D
:102A000072656552544F535C7461736B732E63002F
:102A10004572726F723A2025732C2025640D0A00CE
:102A200002480068401C0149086070477C00002093
:102A300010B52848006818B101202749086047E010
:102A40000020254908602548006825490860084697
:102A500000682449096888420BD92349096801F1B3
:102A60005400496D1E4A12681E4B1B68D21A11444D
:102A700001601B4800681B4908601C480068B0FAE8
:102A800080F0C0F11F0404EB8400194951F82000C4
:102A900008B1012000E0002028B940F6F62215A177
:102AA00019A0FDF70BFC04EB8401114A02EB810035
:102AB00041684968416000F1080142688A4202D1D8
:102AC0004168496841604168C968074A116000BFB0
:102AD00010BD00007C0000206800002028000020BD
:102AE0008400002080000020440000205C000020C2
:102AF000C80100202E2E5C4672656552544F535C0F
:102B00007461736B732E63004572726F723A202585
:102B1000732C2025640D0A001CB522480146097853
:102B20000191FF21024611700146097800919DF83C
:102B3000001001F050011C4A117007211B4A11605E
:102B400009E01A490968491E184A11609DF80010E9
:102B50004906090E00919DF8001001F080018029BE
:102B6000EFD0124909680902104A1160114609881C
:102B700001F4E06111600B4A019911700C48006882
:102B800040F470000A4908600846006840F0704050
:102B90000860FFF7B5FC002006490860FDF732FB2E
:102BA00000201CBD00E400E0B8000020BC000020B4
:102BB00020ED00E0B400002010B500BF502080F3ED
:102BC0001188BFF34F8FBFF36F8F00BF00F07AFB08
:102BD00018B14FF080500449086000BF002080F316
:102BE000118800BF10BD000004ED00E02DE9F8439E
:102BF00005460E4690460DB1012000E0002028B9A0
:102C00004FF4C4720DA112A0FDF758FB0EB90027B6
:102C100001E005FB06F707F15000FFF713FA044641
:102C200044B104F1500943464A46314628460094CF
:102C3000FEF7B6FE2046BDE8F88300002E2E5C4667
:102C400072656552544F535C71756575652E6300EE
:102C50004572726F723A2025732C2025640D0A008C
:102C60002DE9FF4782B005460E461F464FF0000A89
:102C70002C462CB940F2DC4261A166A0FDF71EFB98
:102C80000EB9206C08B9012000E0002028B940F2FC
:102C9000DD425BA15FA0FDF711FB00F0FDFA08B972
:102CA000049808B9012000E0002028B94FF49C6284
:102CB00053A158A0FDF702FB00BFFFF749FBD4F872
:102CC0003890B9F1000F3DD0D4F80C803146204641
:102CD000FEF7A4FDDFB9A9F10100A063206810B9D7
:102CE000FFF75AFA6060206908B9012000E000206F
:102CF00010BB04F1100000F001FCE8B14FF080506F
:102D000048490860BFF34F8FBFF36F8F14E0C4F8DA
:102D10000C80606A08B9012000E0002060B904F16D
:102D2000240000F0EBFB38B14FF080503D490860C3
:102D3000BFF34F8FBFF36F8FFFF74EFB012006B03D
:102D4000BDE8F087049818B9FFF746FB0020F6E7C6
:102D5000BAF1000F04D16846FFF7E4FD4FF0010A15
:102D6000FFF73AFBFFF75CFEFFF7F2FA94F9440035
:102D7000401C10B9002084F8440094F94500401C20
:102D800010B9002084F84500FFF726FB04A9684627
:102D900000F0F4F940BB2046FEF716FFF0B12068C2
:102DA00030B9FFF7D5FA6068FFF764FDFFF714FB51
:102DB00004F124000499FFF705FD2046FFF703F90D
:102DC00000F0F6FB00287FF478AF4FF080501549F3
:102DD0000860BFF34F8FBFF36F8F6EE72046FFF79A
:102DE000F2F800F0E5FB68E72046FFF7ECF800F0AA
:102DF000DFFB2046FEF7E8FE0028EED000209EE72D
:102E00002E2E5C4672656552544F535C7175657524
:102E1000652E63004572726F723A2025732C20254F
:102E2000640D0A0004ED00E070B505460E462C4620
:102E30002CB940F21B121EA122A0FDF73FFAFFF7AA
:102E400087FAD4E90F12206801FB020060600020BD
:102E5000A0632068A060E06B401E226C216800FB2C
:102E60000210E060FF2084F8440084F845009EB919
:102E7000206908B9012000E00020A8B904F1100081
:102E800000F03CFB80B14FF0805012490860BFF366
:102E90004F8FBFF36F8F07E004F11000FFF722FAA6
:102EA00004F12400FFF71EFAFFF796FA012070BD27
:102EB0002E2E5C4672656552544F535C7175657574
:102EC000652E63004572726F723A2025732C20259F
:102ED000640D0A0004ED00E02DE9FF4383B00646CF
:102EE00088461D464FF0000934462CB940F2D922DD
:102EF00058A15DA0FDF7E2F9B8F1000F01D1206CF7
:102F000008B9012000E0002028B940F2DA2251A1DE
:102F100055A0FDF7D3F9022D02D1E06B012801D1B4
:102F2000012000E0002028B940F2DB2249A14EA098
:102F3000FDF7C4F900F0B0F908B9059808B9012007
:102F400000E0002028B940F2DE2242A146A0FDF7B1
:102F5000B5F900BFFFF7FCF9A06BE16B884201D324
:102F6000022D28D12A4641462046FEF76CFC074632
:102F7000606A08B9012000E0002068B904F124006B
:102F800000F0BCFA88B14FF080503B490860BFF3B5
:102F90004F8FBFF36F8F08E03FB14FF0805036493D
:102FA0000860BFF34F8FBFF36F8FFFF715FA012053
:102FB00007B0BDE8F083059818B9FFF70DFA0020B7
:102FC000F6E7B9F1000F04D101A8FFF7ABFC4FF011
:102FD0000109FFF701FAFFF723FDFFF7B9F994F9AB
:102FE0004400401C10B9002084F8440094F94500C6
:102FF000401C10B9002084F84500FFF7EDF905A941
:1030000001A800F0BBF8F0B92046FEF7EAFDA0B138
:1030100004F110000599FFF7D5FB2046FEF7D3FF1A
:1030200000F0C6FA002895D14FF080501249086090
:10303000BFF34F8FBFF36F8F8CE72046FEF7C3FFC0
:1030400000F0B6FA86E72046FEF7BDFF00F0B0FAC2
:103050000020ADE72E2E5C4672656552544F535CDE
:1030600071756575652E63004572726F723A202521
:10307000732C2025640D0A0004ED00E02DE9F05FBB
:1030800007468A4690461E463C462CB940F29F327F
:1030900031A136A0FDF712F9BAF1000F01D1206C71
:1030A00008B9012000E0002028B94FF468722AA175
:1030B0002EA0FDF703F9022E02D1E06B012801D109
:1030C000012000E0002028B940F2A13222A127A06F
:1030D000FDF7F4F8FFF724FA00BF5021EFF3118059
:1030E00081F31188BFF34F8FBFF36F8F00BF054689
:1030F000A06BE16B884201D3022E23D194F945B035
:10310000324651462046FEF79EFB0BF1010088B97E
:10311000606A08B9012000E0002080B904F12400B1
:1031200000F0ECF958B1B8F1000F08D00120C8F850
:10313000000004E00BF1010040B284F845004FF0BC
:10314000010901E04FF0000900BF85F3118800BFBD
:103150004846BDE8F09F00002E2E5C467265655221
:10316000544F535C71756575652E63004572726FBF
:10317000723A2025732C2025640D0A002DE9F041B8
:1031800004460D462CB940F6CB321FA123A0FDF713
:1031900095F82DB940F6CC321BA120A0FDF78EF892
:1031A000FFF7D6F8214807682148006890F85D00CD
:1031B00030B100201E49096881F85D0001261EE03B
:1031C0002868401C08B9002619E01A4920680968D7
:1031D000884204D06068B84201D801260FE06068D8
:1031E000381A2968884209D228686168791A401A11
:1031F00028602046FFF796FB002600E00126FFF737
:10320000EBF83046BDE8F0812E2E5C4672656552C3
:10321000544F535C7461736B732E63004572726F0D
:10322000723A2025732C2025640D0A0058000020D6
:10323000440000206C0000202DE9FF4F85B080463F
:1032400089461746DDE912ABB800FEF7FBFE0646DD
:1032500056B16020FEF7F6FE04460CB1266304E08A
:103260003046FFF7F1F800E000247CB10020CDE902
:1032700000ABCDE902403A4649464046089BFEF77E
:10328000A5FB2046FEF70AFA012501E04FF0FF35C5
:10329000284609B0BDE8F08F0549096809B9012041
:1032A00005E00449096809B9022000E000207047E0
:1032B000600000207C000020014908687047000081
:1032C000580000202DE9F0414FF000084148006807
:1032D000002872D140480068451C3F480560EDB9A0
:1032E0003E480068006808B9012000E0002028B9C5
:1032F00040F6D9123AA13FA0FCF7E0FF3748076833
:1033000040480068354908603E4807603E4800680C
:10331000401C3D490860FEF783FD00BF3B48006844
:1033200085423CD300BF2D480068006808B90120E1
:1033300000E0002020B14FF0FF30344908602DE05C
:1033400026480068C068C4686668B54202D22F4843
:10335000066023E0201DFEF7B1FFA06A18B104F15A
:103360001800FEF7ABFF94F82C1001208840284984
:103370000968084326490860E16A01EB8101254A92
:1033800002EB8100211DFEF7D7FF2349E06A09689F
:10339000C96A8842C7D34FF00108C4E700BF1E487E
:1033A0000068C06A00EB80001A4951F8200001282B
:1033B00001D94FF0010805E0FFE718480068401CFC
:1033C000164908601648006808B14FF001084046E9
:1033D000BDE8F0817C00002058000020480000205B
:1033E0002E2E5C4672656552544F535C7461736B4C
:1033F000732E63004572726F723A2025732C20255C
:10340000640D0A004C0000206C00002074000020B5
:103410005C000020C801002044000020640000205F
:103420006800002070B505462C460026002D4BD0C4
:1034300026480068844201D1012000E0002028B91C
:1034400040F6C76222A127A0FCF738FF206D28B9FB
:1034500040F6C9621EA123A0FCF730FF206D401E7C
:103460002065E16CE06A88422ED0206D60BB201D93
:10347000FEF724FF78B9E06A00EB80001D4951F89F
:10348000200040B994F82C10012088401A4909689E
:10349000814319480160E06CE062E06AC0F12000FD
:1034A000A06194F82C100120884013490968084352
:1034B00011490860E16A01EB81010E4A02EB8100CB
:1034C000211DFEF739FF0126304670BD4400002063
:1034D0002E2E5C4672656552544F535C7461736B5B
:1034E000732E63004572726F723A2025732C20256B
:1034F000640D0A00C80100205C00002070B506467B
:10350000F068C4682CB940F661321AA11EA0FCF71D
:10351000D5FE04F11800FEF7D1FE1F480068A8B9D7
:10352000201DFEF7CBFE94F82C10012088401B498B
:103530000968084319490860E16A01EB8101184AEA
:1035400002EB8100211DFEF7F7FE04E004F11801F3
:103550001448FEF7F1FE1449E06A0968C96A884216
:1035600004D9012501201149086000E00025284602
:1035700070BD00002E2E5C4672656552544F535C40
:103580007461736B732E63004572726F723A2025FB
:10359000732C2025640D0A007C0000205C000020B4
:1035A000C8010020700400204400002068000020B2
:1035B00070B5002400263448006828B94FF4FD6235
:1035C00032A137A0FCF77AFEFEF7C2FE2E48006853
:1035D000401E2D4908600846006800284FD1344835
:1035E000006800284BD024E03248C068C46804F169
:1035F0001800FEF763FE201DFEF760FE94F82C1005
:10360000012088402C49096808432B490860E16A79
:1036100001EB8101294A02EB8100211DFEF78CFE9E
:103620002749E06A0968C96A884202D3012025490E
:1036300008602048006808B9012000E00020002848
:10364000D2D00CB1FEF7ECFB1F48056865B100BF96
:10365000FFF738FE10B101201A4908606D1E002DD9
:10366000F6D10020184908601648006838B10126D4
:10367000300716490860BFF34F8FBFF36F8FFEF717
:10368000ABFE304670BD00007C0000202E2E5C4654
:1036900072656552544F535C7461736B732E630093
:1036A0004572726F723A2025732C2025640D0A0032
:1036B00054000020700400205C000020C80100209D
:1036C00044000020680000206400002004ED00E0B9
:1036D0001CB50024FEF73EF80B48006858B10B48B3
:1036E0001F2100234FF48072CDE9001008A10A4881
:1036F000FFF7A2FD04462CB940F2331207A10DA03A
:10370000FCF7DCFD20461CBD90000020940000204A
:10371000546D722053766300AD1F00082E2E5C4658
:1037200072656552544F535C74696D6572732E6394
:10373000000000004572726F723A2025732C20251C
:10374000640D0A002DE9FF4704460D4616461F4644
:10375000DDF830804FF000092CB94FF4D37217A177
:103760001CA0FCF7ABFD1F48006810B30095019644
:103770000294062D15DAFFF78FFD022808D10023E9
:103780004246694617480068FFF7A6FB814610E0ED
:1037900000231A46694613480068FFF79DFB8146DF
:1037A00007E000233A4669460E480068FFF766FCCA
:1037B0008146484604B0BDE8F08700002E2E5C46E6
:1037C00072656552544F535C74696D6572732E63F4
:1037D000000000004572726F723A2025732C20257C
:1037E000640D0A0090000020083800080000002046
:1037F000C00000006C010008C8380008C0000020AC
:10380000783200008801000800A24A04000000008D
:103810000000000001020304060708090000000080
:103820000000000000000000000000000000000098
:103830000000000001000000000102030401020377
:103840000406070809020406080000000000000042
:103850000000000000000000000000000000000068
:103860000000000000000000000000000000000058
:103870000000000000000000000000000000000048
:103880000000000000000000000000000000000038
:103890000000000000000000000000000000000028
:1038A0000000000000000000000000000000000018
:1038B000000000000000000000000000AAAAAAAA60
:0838C000000000000000000000
:040000050800027974
:00000001FF
